:100D350041008B0142008900004100820041008E84
:070D45000041008C00C11CFD
:100EB10090008DE0FFC39402748094802225E02489
:100EC10085F582E43400F58322EFF090008DE00493
:100ED100F02275F002A42401FFE5F03402FE22F5B0
:070EE10082E43400F58322D6
:10062C007F017E0012103E900082EFF07F027E0070
:10063C0012103E90008BEFF0E490008DF0120EB192
:10064C005039EF75F002A42400120ED912103EEFAF
:10065C007F00FEC006C00790008DE0120ED3121072
:10066C003EEFFDD0E02DFFD0E03400FE90008DE099
:10067C00120EBEEEF0A3120ECA80C2E490008DF0F2
:10068C00120EB15019EF2404FFE43402FE12103E96
:10069C0090008DE02490120EE0120ECA80E29000C1
:1006AC0082E06003F470429000827401F090008B41
:1006BC00F0E490008DF0120EB1500DEF120EBEE46E
:1006CC00F0A304120ECB80EEE490008DF0120EB16C
:1006DC00500D74902F120EE07401120ECB80EEAF01
:0A06EC0096900085E4F0A3EFF022E1
:1008F100201C03020985C21CE4FFFE121086900031
:1009010082E0FD7F017E0012102990008BE0FD7FC7
:10091100027E001210297F007E02121086E49000F0
:100921008DF090008DE0120EB65032E0F975F002B4
:10093100A42400FBE5F03402FAE9120EBEE0FDAF9B
:1009410003AE0212102990008DE0FD120ED3ED12BC
:100951000EBEA3E0FD121029120ECC80C5E490005A
:100961008DF090008DE0FD120EB65018ED2404FFBD
:10097100E43402FE74902D120EE0E0FD12102912F3
:050981000ECC80DE2217
:0B10ED007E00CFCDCFCECCCE02003B6A
:06000300120FB7020424F5
:1005390090008EE014606A1470030205C9240260F9
:10054900030205F9120C8BEF6047900089E0FAA3CA
:10055900E0FB7C037DE8FFAE0212003B7F641210D2
:10056900ED900095EFF07C007D64AF03AE021200C0
:100579003B7F0A1210ED900096EFF0900089E0FEA3
:10058900A3E0FF7C007D0A12003B900097EDF0800C
:100599005F900094740FF0900095F0900096F080B1
:1005A90013900094740EF090009504F0900096F06A
:1005B900900082E0900097F09000987402F08030EB
:1005C90090008EE0FF25E02481F582E43400F58374
:1005D900E0FCA3E0FDEF2408FFE4FB1208579000BC
:1005E9008EE0248EF582E43400F583E0900098F0E3
:1005F90090008BE0601D900094E0FF900095E0FD75
:10060900900096E0FB900097E0F50B900098E0F5DC
:100619000C800C750B10750C027B107D107F10126D
:030629000C2F2271
:0D10950090008EE07006121064120EE8222A
:100C8B00E4F508C3E508940A748094805048AF08D3
:100C9B001210E1EF6401703AE50875F00DA4240021
:100CAB00F582E43400F583E0FFA3E0900089CFF0F8
:100CBB00A3EFF0E50875F00DA4240AF582E43400E7
:100CCB00F583E0900098F0E508240A900094F07FFB
:080CDB000122050880AD7F0035
:010CE30022EE
:100EE800300E2120081EE4F50DF50EF50F751006DD
:100EF800F511F512751304751401FBFAFDFCFF12C8
:100F08000A12C2B7E4FF1210BCEF6002D2B7020C9B
:010F18008B4D
:100FD800900082E0FF7E00750E00750F0122E92562
:100FE800E02481F582E43400F583E0FEA3E0FF22EB
:100D7C00E510602514703EC3ED950FF582EC950ED1
:100D8C00F583D3EF9582EE95835009E50F2FFFE5A0
:100D9C000E3EFE22AE02AF0322E50F2BFBE50E3A10
:100DAC00FAC3EF9BEE9A4009EF950FFFEE950EFEFE
:060DBC0022AE04AF052287
:1004240020B615051AD3E51A940A74809480400BFB
:1004340090008E7402F08003E4F51A30102020043A
:100444001D90008EE0FFD3940074809480400F12BE
:100454000FDD12051F90008EEFF07002D21C20B544
:100464002B90008EE0F9602414700F120FD87510D1
:10047400017A007C0012052C8012120FE6120FDFA5
:10048400751001E4120506EEF0A3EFF020B42890F5
:10049400008EE0F9602114700D120FD8E4F510FA03
:1004A400FC12052C8011120FE6120FDFE4F5101276
:1004B4000506EEF0A3EFF030134720074490008EBA
:1004C400E0F914603C04701A90008B120FDB751075
:1004D40001E4FBFA7D01FC120D7C90008BEFF0D25D
:1004E4001C22748E29F582E43400F583120FDB128A
:1004F400051F90008EE0248EF582E43400F583EF2E
:10050400F022FBFA7DE77C03120D7C90008EE0253F
:10051400E02481F582E43400F58322751001E4FBC4
:10052400FA7D03FC120D7C227B017D02120D7C906E
:050534000082EFF0223F
:10106400A208920EA2979208A209920FA2CC92090A
:011074002259
:100F9600A20A9200A280920AA20B9201A281920B4F
:100FA600A20C9202A282920CA20D9203A283920D2F
:010FB6002218
:100FB700A2049210A2B69204A2059211A2B59205BC
:100FC700A2069212A2B49206A2079213A2959207C2
:010FD70022F7
:101052003F065B4F666D7D077F6F777C395E73401D
:0210620000C0CC
:080D4C004100920041009300F8
:100F4800900093E0C3943274809480227E00CFCDC9
:100F5800CFCECCCE02003BAE08AF097C0002003BEE
:070F6800900092E004F0226A
:100C2F00D283D282D281D280900092E014601514C8
:100C3F00601D1460252403702CC283120F68AE0749
:100C4F007CFF8021C282120F68AE05E4FC8016C2C1
:100C5F0081120F68AE037C01800BC280E49000927A
:100C6F00F0AE0B7C03E50CB5040AEE9010529344E2
:0B0C7F0080F5A022EE90105293F5A02B
:010C8A002247
:100A8D00900093E004F0C39464748094804002E479
:100A9D00F0301807900094EFF08010120F485005B9
:100AAD00A3EFF080069000947410F03019079000B9
:100ABD0095EDF0800F120F489000955004EDF080E9
:100ACD00037410F0301A07900096EBF0800F120FA0
:100ADD00489000965004EBF080037410F0301B0525
:100AED009000978008120F489000975004E510F081
:050AFD00227410F0223C
:080857008C088D098B0AAA0729
:10085F00AE08AF097C277D1012003B7E037FE812A4
:10086F000F568F0BAE08AF097C037DE812003B7F5C
:10087F0064120F548F0C7D64120F5F7F0A120F5496
:10088F00AB077D0A120F5FAF05E50A146011146004
:10089F001614601F1460282404702EC21480048A5A
:1008AF000BD214C21580068A0CC214D215C216C2FE
:1008BF00178016AB02C214C215D216C217800AAF28
:1008CF0002C214C215C216D2178F10A2149218A208
:1008DF00159219A216921AA217921BAD0CAF0B020A
:0208EF000A8D70
:0B10F8008FC48EC375C65A75C6A522B2
:0D10A200E4F5C7F5C5F5C675C380F5C42299
:10103E0075C78375F50C75C5011210F8000000AF69
:04104E00C20210A228
:1010290075C78375C5028FC48EC38DC21210FC00AB
:0510390000000210A2FE
:0F10860075C78375C5031210F80000000210A291
:030000000209866C
:0C098600787FE4F6D8FD7581490209CDA8
:100D5400202426000000640000FF000300000005BA
:100D64000000FF0539000000050000FF1095000099
:070D7400000A0000FF08F176
:10107500E52475F009A4242AF822E52475F009A4CD
:011085002248
:03000B000207B534
:1007B500C0E0C0F0C083C082C0D075D000C000C00A
:0D07C50001C002C003C004C005C006C0078B
:1007D20075C135751500C3E515940A74809480506F
:1007E20009AF15120F19051580EC752400C3E52415
:1007F2009404748094805042121075E6FE08E64E0E
:10080200703412107F2428F8E6FE08E6FF12107FEB
:100812002426F80806E6187001068604B50717ECC8
:10082200B5061312107F2426F876000876001210FF
:0A083200757600087601052480B3F6
:10083C00D007D006D005D004D003D002D001D00010
:0B084C00D0D0D082D083D0F0D0E032BA
:10101100438E805389F0758ACD758CD4C28DD28C64
:08102100D2A9D2AF75C135223E
:03110E00021011BB
:100E3F00E4F525C3E52594047480948050F2E525EC
:100E4F00121077E6FE08E64E601BE52575F009A443
:100E5F00242CF808E6FA08E6F91201BBE525121072
:090E6F0077E4F608F6052580CAB7
:0C10C900120FB7120FB71210640210646F
:0D10AF00120DC27D017F02120CE402110E31
:0C10D5001210AF12062C1210C9020E3FC0
:100B0200EF75F00DA4240BF582E43400F58322EF97
:100B120075F00DA4240CF582E43400F58322AB17A2
:100B2200AA18A919900002E475F00102012BAB1773
:100B3200AA18A919900002E4F5F0020178AB17AAED
:100B420018A9191200BBD39400E5F0940022A3F077
:100B5200E975F00DA422AFF0FEE4FCFD7B607AEAB9
:100B6200F9F8D30201A5FEC3E5F094E8EE9403225E
:100A1200A907E975F00DA42404F582E43400F583F6
:100A2200EAF0EB120B502406F582E43400F583E57C
:100A32000DF0E50E120B502408F582E43400F58324
:100A4200E50FF0A3E510120B512400F582E4340007
:100A5200F583ECF0A3ED120B512402F582E434008D
:100A6200F583E511F0A3E512120B51240AF582E495
:100A72003400F583E513F0E9120B03E514F0640189
:0B0A82007006E9120B12E4F0AF012235
:100301008B178A18891912009045F070219000040A
:100311001200BB45F070179000061200BB45F0704B
:100321000D9000081200BB45F070037F0122900080
:100331000A12000EB40A004003020421900344F89B
:1003410028287302036502037B0203910203A102C1
:1003510003B60203DB020421020421020421020389
:10036100620203AC120B26FEC3E5F0940AEE940080
:100371005003020421120B368031120B26FEC3E515
:10038100F09464EE94005003020421120B36801B9A
:10039100120B26120B685003020421120B36800B3C
:1003A100120B26120B585078120B3074FFF5F01215
:1003B10000F3020421120B20120B684063120B366A
:1003C100900008120B4540028023900006120B3F5B
:1003D100400590000680337F0122120B20120B583A
:1003E100503E120B30900008120B454012AB17AA79
:1003F10018A91990000874FFF5F012012B802190C3
:100401000004120B3F401690000474FFF5F0120136
:100411002B900008E475F03B12017880037F0122E4
:030421007F002237
:100F19008F16120B02E064017024EF75F00DA42402
:100F290000F9740035F0FA7B01120301EF600FE557
:0F0F390016120B03E4F0E516120B127401F022EE
:0C10BC00120B11E0FE120B11E4F0AF0665
:0110C8002205
:0C10E100120B11E0FE120B02E04EFF2289
:0B110300120B02EDF0120B11E4F022C1
:100FF800E4FFEFC3940A74809480500A120B02E055
:081008007001220F80EC7FFF54
:0110100022BD
:100F6F00120FF8AC07120FF81210E1AD07AF041211
:100F7F001103E4FFEFC3940A748094805008120B9E
:060F8F0002E4F00F80EE09
:010F95002239
:100B7200AE0BA80674010822900099E0F594A3E058
:100B8200F59322900099E0F592A3E0F5912290006E
:100B920099E0F596A3E0F59522900099E0F5B2A3CD
:100BA200E0F5B122900099E0F5B4A3E0F5B322900C
:100BB2000099E0F5CAA3E0F5C922900099E0F5CCCE
:100BC200A3E0F5CB22900099E0F5E2A3E0F5E12263
:100DC2007B04E4FDFF1206F67D04E4FF120CE4E46A
:100DD200FBFD7F021201D7E4FD7F02120E02E4F551
:100DE20093F594F591F592F595F596F5B1F5B2F581
:100DF200B3F5B4F5C9F5CAF5CBF5CCF5E1F5E222C8
:1001D700EFB4080040030203009001E7F8282873F2
:1001E7000201FF02021F02023F02025F02027F02B8
:1001F700029F0202BF0202DFEB600EA8057401082E
:100207008002C333D8FC428022A80574010880020B
:10021700C333D8FCF4528022EB600EA805740108A2
:100227008002C333D8FC429022A8057401088002DB
:10023700C333D8FCF4529022EB600EA80574010872
:100247008002C333D8FC42A022A8057401088002AB
:10025700C333D8FCF452A022EB600EA80574010842
:100267008002C333D8FC42B022A80574010880027B
:10027700C333D8FCF452B022EB600EA80574010812
:100287008002C333D8FC42C022A80574010880024B
:10029700C333D8FCF452C022EB600EA805740108E2
:1002A7008002C333D8FC42C822A805740108800223
:1002B700C333D8FCF452C822EB600EA805740108BA
:1002C7008002C333D8FC42E822A8057401088002E3
:1002D700C333D8FCF452E822EB600EA8057401087A
:1002E7008002C333D8FC42F822AF05A8077401087F
:0A02F7008002C333D8FCF452F82251
:100E0200EFB408005036900E0FF8282873020E2710
:100E1200020E2A020E2D020E30020E33020E36028E
:100E22000E39020E3C8D80228D90228DA0228DB033
:0D0E3200228DC0228DC8228DE8228DF8226D
:100BD200EB146019146028146033147042120B7203
:100BE2008002C333D8FCF4520752058035120B72CF
:100BF2008002C333D8FCFE4207EEF4520580231272
:100C02000B728002C333D8FCFE4207800D120B72B6
:100C12008002C333D8FCFEF45207EE420580037F04
:0D0C22000022900099EFF0A3EDF07F012279
:1006F600AC03AA05EFB4080040030207B490070A4A
:10070600F828287302072202073702074902075B07
:1007160002076D02077F0207910207A3AB048A0B4B
:10072600AD93AF94120BD2EF70030207B4120B7A9B
:1007360022AB048A0BAD91AF92120BD2EF606F120F
:100746000B8522AB048A0BAD95AF96120BD2EF60E8
:100756005D120B9022AB048A0BADB1AFB2120BD275
:10076600EF604B120B9B22AB048A0BADB3AFB412F6
:100776000BD2EF6039120BA622AB048A0BADC9AFC0
:10078600CA120BD2EF6027120BB122AB048A0BAD53
:10079600CBAFCC120BD2EF6015120BBC22AB048A86
:0F07A6000BADE1AFE2120BD2EF6003120BC722D3
:100E7800EF14600F14601714601E147026E49000BD
:100E880099801090009974FFF0E4A3F08018900006
:100E98009974FFF0A3F0800EE4900099F0A374FF1A
:090EA800F080037F00227F01228B
:100CE400AE05AD07AF06120E78EF6044EDB4080010
:100CF400503E900CFDF8282873020D15020D1902C0
:100D04000D1D020D21020D25020D29020D2D020DCE
:100D140031120B7A22120B8522120B9022120B9B9A
:100D240022120BA622120BB122120BBC22120BC7E9
:010D3400229C
:100992000210D5E493A3F8E493A34003F68001F296
:1009A20008DFF48029E493A3F85407240CC8C33366
:1009B200C4540F4420C8834004F456800146F6DF35
:1009C200E4800B0102040810204080900D35E47E83
:1009D200019360BCA3FF543F30E509541FFEE4932A
:1009E200A360010ECF54C025E060A840B8E493A3F1
:1009F200FAE493A3F8E493A3C8C582C8CAC583CA1C
:100A0200F0A3C8C582C8CAC583CADFE9DEE780BED3
:010D7B000077
:10000E00BB010CE58229F582E5833AF583E02250A7
:10001E0006E92582F8E622BBFE06E92582F8E222F1
:0D002E00E58229F582E5833AF583E493220B
:10003B00BC000BBE0029EF8DF084FFADF022E4CCA9
:10004B00F875F008EF2FFFEE33FEEC33FCEE9DEC72
:10005B00984005FCEE9DFE0FD5F0E9E4CEFD22EDB8
:10006B00F8F5F0EE8420D21CFEADF075F008EF2F02
:10007B00FFED33FD4007985006D5F0F222C398FDF3
:05008B000FD5F0EA2290
:10009000BB010A89828A83E0F5F0A3E0225006873B
:1000A000F009E71922BBFE07E3F5F009E3192289FD
:0B00B000828A83E493F5F07401932230
:1000BB00BB0110E58229F582E5833AF583E0F5F083
:1000CB00A3E0225009E92582F886F008E622BBFE60
:1000DB000AE92582F8E2F5F008E222E5832AF583A6
:0800EB00E993F5F0A3E993226B
:1000F300BB010789828A830201C1500B09C5F0271E
:10010300F7C5F01937F722BBFE0D09F8E325F0F325
:10011300C5F019E338F322F889828A8374019325A1
:08012300F0C5F0F8E493382266
:10012B00BB010DC58229C582C5833AC5830201C1B6
:10013B005011C58229F808E5F026F618F5F0E5828E
:10014B0036F622BBFE11C58229F808E225F0F5F040
:10015B00F218E23582F222F8E58229F582E5832A4C
:0D016B00F58374019325F0F5F0E49338223C
:10017800F8BB0111E58229F582E5833AF583E8F0B9
:10018800E5F0A3F0225009E92582C8F608A6F02276
:0D019800BBFE09E92582C8F2E5F008F2225D
:1001A500EB9FF5F0EA9E42F0E99D42F0EC6480C8D1
:0601B50064809845F02271
:0601BB008A838982E473CF
:1001C100C5F0F8A3E028F0C5F0F8E58215827002C9
:0601D1001583E038F02266
:00000001FF
